:020000040800F2
:1000000000000120E5780008A5710008B171000822
:10001000B7710008BD710008C3710008000000003E
:100020000000000000000000000000004151000836
:10003000C97100080000000021530008695300083E
:100040002D7900082D7900082D7900082D790008F8
:100050002D7900082D7900082D7900082D790008E8
:100060002D7900082D7900082D7900082D790008D8
:100070002D7900082D7900082D7900082D790008C8
:100080002D7900082D7900082D7900082D790008B8
:10009000D57100082D7900082D7900082D79000808
:1000A0002D790008E97100082D7900082D790008E4
:1000B0002D7900082D7900082D7900082D79000888
:1000C0002D7900082D7900082D7900082D79000878
:1000D0002D7900082D7900082D7900082D79000868
:1000E0002D7900082D7900082D7900082D79000858
:1000F0002D7900082D7900082D7900082D79000848
:100100002D7900082D7900082D7900082D79000837
:100110002D7900082D7900082D7900082D79000827
:100120002D7900082D7900082D7900082D79000817
:1001300000000000000000000000000000000000BF
:1001400000000000000000000000000000000000AF
:10015000000000000000000000000000000000009F
:10016000000000000000000000000000000000008F
:10017000000000000000000000000000000000007F
:10018000000000000000000000000000000000006F
:10019000000000000000000000000000000000005F
:1001A000000000000000000000000000000000004F
:1001B000000000000000000000000000000000003F
:1001C000000000000000000000000000000000002F
:1001D000000000000000000000000000000000001F
:0401E0005FF8E0F1F3
:1001F00010B5054C237833B9044B13B10448AFF361
:1002000000800123237010BD880100200000000041
:10021000A479000808B5034B1BB103490348AFF3A9
:10022000008008BD000000008C010020A4790008B7
:1002300080B500AF084B1B68074A43F010031360FA
:10024000032000F0D1F8002006F056FF06F0B2FEC1
:100250000023184680BD00BF0020024080B400AFDC
:10026000054B1B781A46054B1B681344034A136061
:1002700000BFBD4680BC704704000020A4010020E0
:1002800080B400AF024B1B681846BD4680BC704767
:10029000A401002080B485B000AF78607B6803F0D3
:1002A0000703FB600C4BDB68BB60BA684FF6FF03CB
:1002B0001340BB60FB681A02BB68134343F0BF6383
:1002C00043F40033BB60044ABB68D36000BF1437FB
:1002D000BD4680BC704700BF00ED00E080B400AFB9
:1002E000044BDB681B0A03F007031846BD4680BCBD
:1002F000704700BF00ED00E080B483B000AF03465C
:10030000FB7197F90730002B0BDBFB7903F01F0221
:10031000064997F907305B09012000FA02F241F81B
:10032000232000BF0C37BD4680BC704700E100E0D1
:1003300080B483B000AF03463960FB7197F9073092
:10034000002B0ADB3B68DAB20C4997F9073012013F
:10035000D2B20B4483F800230AE03B68DAB20849C2
:10036000FB7903F00F03043B1201D2B20B441A765F
:1003700000BF0C37BD4680BC704700BF00E100E005
:1003800000ED00E080B489B000AFF860B9607A6039
:10039000FB6803F00703FB61FB69C3F10703042B50
:1003A00028BF0423BB61FB690433062B02D9FB6918
:1003B000033B00E000237B614FF0FF32BB6902FA90
:1003C00003F3DA43BB681A407B699A404FF0FF3170
:1003D0007B6901FA03F3D9437B680B40134318464A
:1003E0002437BD4680BC704780B582B000AF7860CE
:1003F0007868FFF74FFF00BF0837BD4680BD80B566
:1004000086B000AF0346B9607A60FB7300237B615E
:10041000FFF764FF78617A68B9687869FFF7B2FF1F
:10042000024697F90F3011461846FFF781FF00BFCB
:100430001837BD4680BD80B582B000AF0346FB7162
:1004400097F907301846FFF757FF00BF0837BD463A
:1004500080BD80B582B000AF78607B68002B01D191
:1004600001230EE07B685B79DBB2002B05D17B6852
:1004700000221A71786806F0D5FD7B6801225A7156
:10048000002318460837BD4680BD000080B48BB0FD
:1004900000AF7860396000237B6200233B6279E122
:1004A00001227B6A02FA03F3FB613B681B68FA696D
:1004B0001340BB61BA69FB699A4240F068813B68AE
:1004C0005B68A04A93425ED09E4A934275D89E4A8A
:1004D000934258D09C4A93426FD89C4A934252D040
:1004E0009A4A934269D89A4A93424CD0984A934286
:1004F00063D8984A934246D0964A93425DD8122BCD
:100500002AD8122B59D801A252F823F087050008E7
:100510006105000873050008B5050008BB05000863
:10052000BB050008BB050008BB050008BB050008AB
:10053000BB050008BB050008BB050008BB0500089B
:10054000BB050008BB050008BB050008BB0500088B
:10055000690500087D0500087F4A934213D02CE00E
:100560003B68DB683B6229E03B68DB6804333B6245
:1005700024E03B68DB6808333B621FE03B68DB68D4
:100580000C333B621AE03B689B68002B02D10423CA
:100590003B6213E03B689B68012B05D108233B625B
:1005A0007B68FA691A6109E008233B627B68FA6993
:1005B0005A6103E000233B6200E000BFBB69FF2BF0
:1005C00001D87B6801E07B6804337B61BB69FF2B4A
:1005D00002D87B6A9B0002E07B6A083B9B003B6180
:1005E0007B691A680F213B6901FA03F3DB431A4068
:1005F000396A3B6901FA03F31A437B691A603B6865
:100600005B6803F08053002B00F0C180534B9B6963
:10061000524A43F001039361504B9B6903F001037D
:10062000BB60BB684E4A7B6A9B08023352F823309A
:10063000FB607B6A03F003039B000F2202FA03F3C3
:10064000DB43FA681340FB607B68464A93421FD045
:100650007B68454A934219D07B68444A934213D041
:100660007B68434A93420DD07B68424A934207D04D
:100670007B68414A934201D105230AE0062308E042
:10068000042306E0032304E0022302E0012300E048
:1006900000237A6A02F0030292009340FA6813433F
:1006A000FB602F497B6A9B080233FA6841F82320DC
:1006B0003B685B6803F48033002B06D02F4B1A682D
:1006C0002E49BB6913430B6006E02C4B1A68BB69CB
:1006D000DB432A4913400B603B685B6803F400333B
:1006E000002B06D0254B5A682449BB6913434B6045
:1006F00006E0224B5A68BB69DB43204913404B603C
:100700003B685B6803F48013002B06D01B4B9A6890
:100710001A49BB6913438B6006E0184B9A68BB69A2
:10072000DB43164913408B603B685B6803F400139E
:10073000002B25D0114BDA681049BB691343CB60FD
:1007400025E000BF00003210000031100000221030
:1007500000002110000012100000111000100240D3
:100760000000014000080140000C01400010014061
:100770000014014000180140001C01400004014029
:100780000B4BDA68BB69DB4309491340CB607B6ADA
:1007900001337B623B681A687B6A22FA03F3002B01
:1007A0007FF47EAE00BF00BF2C37BD4680BC7047D3
:1007B0000004014080B485B000AF78600B467B80B8
:1007C0007B689A687B881340002B02D00123FB735F
:1007D00001E00023FB73FB7B18461437BD4680BC49
:1007E000704780B483B000AF78600B467B801346BF
:1007F0007B707B78002B03D07A887B681A6103E0DA
:100800007B881A047B681A6100BF0C37BD4680BC28
:100810007047F0B58BB006AF78607B68002B01D1D4
:100820000123D3E07B6893F82932DBB2002B06D199
:100830007B68002283F82822786806F039FD7B68FF
:10084000032283F829227B681B68184601F00DFFFC
:100850007B681B683B607E686D4606F110040FCC18
:100860000FC523682B60331D0ECB386801F0D6FE10
:100870000346002B05D07B68022283F8292201233E
:10088000A4E07B681B680021184601F00AFF0023E2
:10089000FB7335E0FB7B7A685B011344293301224B
:1008A0001A70FB7B7A685B0113442833FA7B1A7059
:1008B000FB7BFA7B91B27A685B01134436330A46BC
:1008C0001A80FB7B7A685B0113442B3300221A7079
:1008D000FB7B7A685B011344383300221A60FB7B90
:1008E0007A685B0113443C3300221A60FB7B7A6810
:1008F00002335B01134400221A60FB7B0133FB735C
:10090000FA7B7B685B689A42C4D30023FB7331E0B7
:10091000FB7B7A685B01134403F2291300221A70EF
:10092000FB7B7A685B01134403F59473FA7B1A70BE
:10093000FB7B7A685B01134403F22B1300221A70CD
:10094000FB7B7A685B01134403F59C7300221A60F9
:10095000FB7B7A685B01134403F59E7300221A60E7
:10096000FB7B7A680A335B01134400221A60FB7B2D
:100970000133FB73FA7B7B685B689A42C8D37B6860
:100980001B683B607E686D4606F110040FCC0FC5F6
:1009900023682B60331D0ECB386801F08EFE0346B2
:1009A000002B05D07B68022283F8292201230DE069
:1009B0007B68002283F824207B68012283F82922A7
:1009C0007B681B68184602F0CCFE002318461437DB
:1009D000BD46F0BD80B582B000AF78607B6893F80B
:1009E0002832012B01D1022316E07B68012283F813
:1009F00028220121786806F09CFE7B681B68184657
:100A000002F0A5FE7B681B68184601F017FE7B68A4
:100A1000002283F82822002318460837BD4680BDEF
:100A200080B582B000AF78607B681B68184602F022
:100A3000A2FE034603F40043B3F5004F02D17868E9
:100A400000F0DEFA7B681B68184602F094FE03464D
:100A500003F48063B3F5806F12D17B681B68B3F831
:100A600044309AB27B681B6822F4806292B2A3F889
:100A70004420786806F091FC0021786800F0DEF8E8
:100A80007B681B68184602F076FE034603F4804339
:100A9000B3F5804F0BD17B681B68B3F844309AB232
:100AA0007B681B6822F4804292B2A3F844207B68E2
:100AB0001B68184602F05FFE034603F40053B3F5CB
:100AC000005F0BD17B681B68B3F844309AB27B6837
:100AD0001B6822F4005292B2A3F844207B681B6882
:100AE000184602F048FE034603F48053B3F5805FD6
:100AF00026D17B681B68B3F840309AB27B681B68CC
:100B000022F0040292B2A3F840207B681B68B3F87D
:100B100040309AB27B681B6822F0080292B2A3F8B8
:100B20004020786806F072FC7B681B68B3F844309C
:100B30009AB27B681B6822F4805292B2A3F84420D8
:100B40007B681B68184602F016FE034603F4006338
:100B5000B3F5006F3DD17B681B68B3F840309AB2A3
:100B60007B681B6842F0080292B2A3F840207B68C1
:100B70001B68B3F844309AB27B681B6822F40062A9
:100B800092B2A3F844207B681B68B3F840309AB255
:100B90007B681B6842F0040292B2A3F840207B6895
:100BA0001B68184602F0E7FD034603F48053B3F5D3
:100BB000805F0BD17B681B68B3F844309AB27B68C6
:100BC0001B6822F4805292B2A3F84420786806F0A1
:100BD00003FC7B681B68184602F0CDFD034603F456
:100BE0000073B3F5007F0ED17B681B68B3F8443007
:100BF0009AB27B681B6822F4007292B2A3F8442078
:100C0000786806F0BCFB7B681B68184602F0B3FDF1
:100C1000034603F48073B3F5807F0BD17B681B68B8
:100C2000B3F844309AB27B681B6822F4807292B2A7
:100C3000A3F8442000BF0837BD4680BD80B582B010
:100C400000AF78600B46FB707B6893F82832012B6D
:100C500001D1022313E07B68012283F828227B68FC
:100C6000FA7883F824207B681B68FA7811461846C6
:100C700002F05AFD7B68002283F8282200231846E0
:100C80000837BD4680BD80B584B000AF78600846A7
:100C900011461A460346FB700B463B801346BB7059
:100CA0000023FB7297F90330002B0BDAFB7803F07B
:100CB00007035B0128337A681344FB60FB68012259
:100CC0005A700BE0FB7803F007035B0103F59473A4
:100CD0007A681344FB60FB6800225A70FB7803F0CB
:100CE0000703DAB2FB681A703A88FB681A61FB687E
:100CF000BA78DA70FB685B78002B04D0FB681B784D
:100D00009AB2FB68DA81BB78022B02D1FB68002221
:100D10001A717B6893F82832012B01D102230EE06F
:100D20007B68012283F828227B681B68F9681846D3
:100D300001F0E8FC7B68002283F82822FB7A184641
:100D40001037BD4680BD80B584B000AF78600B46DB
:100D5000FB7097F90330002B0BDAFB7803F00703E5
:100D60005B0128337A681344FB60FB6801225A70E8
:100D70000BE0FB7803F007035B0103F594737A68DB
:100D80001344FB60FB6800225A70FB7803F00703F2
:100D9000DAB2FB681A707B6893F82832012B01D114
:100DA00002230EE07B68012283F828227B681B68FF
:100DB000F968184601F094FF7B68002283F8282226
:100DC000002318461037BD4680BD80B586B000AF01
:100DD000F8607A603B600B46FB72FB7A03F0070316
:100DE0005B0103F59473FA6813447B617B697A684D
:100DF0005A617B693A689A617B690022DA617B6992
:100E000000225A70FB7A03F00703DAB27B691A708A
:100E1000FB7A03F00703002B06D1FB681B68796996
:100E2000184602F0F3F805E0FB681B68796918467C
:100E300002F0ECF8002318461837BD4680BD80B597
:100E400086B000AFF8607A603B600B46FB72FB7ABD
:100E500003F007035B012833FA6813447B617B6965
:100E60007A685A617B693A689A617B690022DA6123
:100E70007B6901225A70FB7A03F00703DAB27B69BF
:100E80001A70FB7A03F00703002B06D1FB681B687E
:100E90007969184602F0BAF805E0FB681B687969C1
:100EA000184602F0B3F8002318461837BD4680BD37
:100EB00080B584B000AF78600B46FB70FB7803F020
:100EC00007027B685B689A4201D9012346E097F9E3
:100ED0000330002B0BDAFB7803F007035B012833A8
:100EE0007A681344FB60FB6801225A7009E0FB78C2
:100EF0005B0103F594737A681344FB60FB6800227E
:100F00005A70FB6801229A70FB7803F00703DAB28B
:100F1000FB681A707B6893F82832012B01D10223F9
:100F20001CE07B68012283F828227B681B68F96833
:100F3000184602F023FBFB7803F00703002B08D1CF
:100F40007B681A687B6803F50C731946104602F03B
:100F500021FC7B68002283F82822002318461037E2
:100F6000BD4680BD80B584B000AF78600B46FB7095
:100F7000FB7803F00F027B685B689A4201D901237A
:100F80003AE097F90330002B0BDAFB7803F0070304
:100F90005B0128337A681344FB60FB6801225A70B6
:100FA0000BE0FB7803F007035B0103F594737A68A9
:100FB0001344FB60FB6800225A70FB6800229A70A1
:100FC000FB7803F00703DAB2FB681A707B6893F8CA
:100FD0002832012B01D102230EE07B68012283F825
:100FE00028227B681B68F968184602F009FB7B68B9
:100FF000002283F82822002318461037BD4680BD02
:1010000090B589B000AF786082E27B681B68B3F866
:101010004430FB82FB8ADBB203F00F037B757B7DE0
:10102000002B40F04281FB8A03F01003002B51D1CA
:101030007B681B681B889BB223F4E14323F0700399
:101040009CB27B681A686FEA44436FEA53439BB2D1
:1010500013807B682833FB607B681B68B3F85030D3
:101060009BB21A46FB681B78DB00134402335B001B
:101070007A681268134403F580631B88C3F309027E
:10108000FB68DA61FB685A69FB68DB691A44FB6834
:101090005A610021786806F05BF97B6893F8243088
:1010A000DBB2002B00F03482FB689B69002B40F020
:1010B0002F827B6893F82430DBB263F07F03DAB2CF
:1010C0007B681B6892B2A3F84C207B68002283F8EF
:1010D00024201DE27B6803F59473FB607B681B682A
:1010E0001B887B827B8A03F40063002B33D07B68F0
:1010F0001B68B3F850309BB21A46FB681B78DB00C4
:10110000134406335B007A681268134403F5806366
:101110001B88C3F30902FB68DA617B6818687B6887
:1011200003F50C71FB68DA88FB68DB699BB202F09F
:1011300081FB7B681B681B889AB240F68F73134053
:101140009CB27B681B6844F0800292B21A80786877
:1011500006F0D4F8DCE1B7F91230002B80F2D88128
:101160007B681B681B889AB240F68F7313409CB251
:101170007B681B6844F0800292B21A807B681B680F
:10118000B3F850309BB21A46FB681B78DB0013445F
:1011900006335B007A681268134403F580631B888A
:1011A000C3F30902FB68DA61FB68DB69002B19D025
:1011B000FB685B69002B15D07B681868FB68596970
:1011C000FB68DA88FB68DB699BB202F033FBFB68E3
:1011D0005A69FB68DB691A44FB685A610021786828
:1011E00006F09EF87B681B681C467B681B68B3F89A
:1011F00050309BB21C4404F20C431C46FB681B6934
:10120000002B0ED123889BB223F4F8439BB223809A
:1012100023889BB26FEA43436FEA53439BB2238018
:101220002DE0FB681B693E2B12D8FB681B695B082D
:10123000BB61FB681B6903F00103002B02D0BB6993
:101240000133BB61BB699BB29B029BB2238016E05A
:10125000FB681B695B09BB61FB681B6903F01F032B
:10126000002B02D1BB69013BBB61BB699BB29B02F6
:101270009BB26FEA43436FEA53439BB223807B6880
:101280001B681B889BB223F4804323F070039CB23D
:1012900084F480539CB284F400539CB27B681A6837
:1012A000A24B23439BB2138032E17B681B681A4632
:1012B0007B7D9B0013441B887B82B7F91230002B87
:1012C00080F2D1807B681B681A467B7D9B001344AB
:1012D0001B889AB240F68F7313409CB27B681B68E0
:1012E0001A467B7D9B00134444F0800292B21A8020
:1012F0007B7D5B0103F594737A681344FB60FB68A4
:101300001B7B002B21D17B681B68B3F850309BB24C
:101310001A46FB681B78DB00134406335B007A68CF
:101320001268134403F580631B88C3F30903FB832E
:10133000FB8B002B72D07B681868FB685969FB68CF
:10134000DA88FB8B02F076FA68E07B681B681A4645
:10135000FB681B789B0013441B889BB203F48043FB
:10136000002B21D07B681B68B3F850309BB21A4623
:10137000FB681B78DB00134402335B007A68126859
:10138000134403F580631B88C3F30903FB83FB8BC2
:10139000002B2AD07B681868FB685969FB681A899A
:1013A000FB8B02F047FA20E07B681B68B3F85030F3
:1013B0009BB21A46FB681B78DB00134406335B00C4
:1013C0007A681268134403F580631B88C3F309032A
:1013D000FB83FB8B002B08D07B681868FB6859697E
:1013E000FB685A89FB8B02F025FA7B681B681A465A
:1013F000FB681B789B0013441B889BB223F4E043DB
:1014000023F070039CB27B681B681A46FB681B784C
:101410009B001A44464B23439BB21380FB68DA6956
:10142000FB8B1A44FB68DA61FB685A69FB8B1A4430
:10143000FB685A61FB689B69002B04D0FA8BFB6840
:101440001B699A4206D2FB681B781946786805F03A
:1014500067FF08E0FB681978FB685A69FB689B69BD
:101460007868FFF7B2FC7B8A03F08003002B4FD033
:101470007B7D5B0128337A681344FB607B681B68C3
:101480001A467B7D9B0013441B889BB223F4E143E7
:1014900023F070039CB27B681B681A467B7D9B001F
:1014A0001A446FEA44436FEA53439BB213807B684C
:1014B0001B68B3F850309BB21A46FB681B78DB0000
:1014C000134402335B007A681268134403F58063A7
:1014D0001B88C3F30902FB68DA61FB685A69FB6881
:1014E000DB691A44FB685A61FB689B69002B06D1D3
:1014F000FB681B781946786805F02AFF08E0FB684E
:101500001978FB685A69FB689B697868FFF797FC54
:101510007B681B68B3F844309BB21BB2002BFFF60C
:1015200074AD002318462437BD4690BD8080FFFF70
:10153000C080FFFF80B487B000AFF8607B600B46CF
:101540007B8113463B817B8903F080039BB2002B98
:1015500008D07B8903F007035B012833FA68134442
:101560007B6106E07B895B0103F59473FA681344A1
:101570007B613B89002B07D17B6900221A737B6852
:101580009AB27B69DA800BE07B6901221A737B686F
:101590009AB27B691A817B681B0C9AB27B695A816B
:1015A000002318461C37BD4680BC704780B586B006
:1015B00000AF78607B68002B01D101236CE27B686F
:1015C0001B6803F00103002B00F08780924B5B68DF
:1015D00003F00C03042B0CD08F4B5B6803F00C035F
:1015E000082B12D18C4B5B6803F48033B3F5803F3A
:1015F0000BD1894B1B6803F40033002B6CD07B6844
:101600005B68002B68D1012346E27B685B68B3F519
:10161000803F06D1804B1B687F4A43F480331360C0
:101620002EE07B685B68002B0CD17B4B1B687A4AF1
:1016300023F480331360784B1B68774A23F48023AC
:1016400013601DE07B685B68B3F5A02F0CD1724B73
:101650001B68714A43F4802313606F4B1B686E4A0A
:1016600043F4803313600BE06B4B1B686A4A23F42E
:1016700080331360684B1B68674A23F48023136030
:101680007B685B68002B13D0FEF7FAFD386108E039
:10169000FEF7F6FD02463B69D31A642B01D90323FA
:1016A000FAE15D4B1B6803F40033002BF0D014E02B
:1016B000FEF7E6FD386108E0FEF7E2FD02463B6911
:1016C000D31A642B01D90323E6E1534B1B6803F4BF
:1016D0000033002BF0D100E000BF7B681B6803F0F3
:1016E0000203002B63D04C4B5B6803F00C03002B10
:1016F0000BD0494B5B6803F00C03082B1CD1464B05
:101700005B6803F48033002B16D1434B1B6803F056
:101710000203002B05D07B681B69012B01D001233C
:10172000BAE13D4B1B6823F0F8027B685B69DB0084
:10173000394913430B603AE07B681B69002B20D0CA
:10174000364B01221A60FEF79BFD386108E0FEF778
:1017500097FD02463B69D31A022B01D903239BE173
:101760002D4B1B6803F00203002BF0D02A4B1B68A3
:1017700023F0F8027B685B69DB00274913430B60A9
:1017800015E0264B00221A60FEF77AFD386108E06A
:10179000FEF776FD02463B69D31A022B01D90323DB
:1017A0007AE11D4B1B6803F00203002BF0D17B682C
:1017B0001B6803F00803002B3AD07B689B69002B61
:1017C00019D0174B01221A60FEF75AFD386108E064
:1017D000FEF756FD02463B69D31A022B01D90323BB
:1017E0005AE10D4B5B6A03F00203002BF0D001209D
:1017F00000F008FB1CE00A4B00221A60FEF740FDD7
:1018000038610FE0FEF73CFD02463B69D31A022B1C
:1018100008D9032340E100BF00100240000042420B
:10182000800442429E4B5B6A03F00203002BE9D125
:101830007B681B6803F00403002B00F0A6800023E4
:10184000FB75974BDB6903F08053002B0DD1944B54
:10185000DB69934A43F08053D361914BDB6903F01A
:101860008053BB60BB680123FB758E4B1B6803F480
:101870008073002B18D18B4B1B688A4A43F480730A
:101880001360FEF7FDFC386108E0FEF7F9FC024644
:101890003B69D31A642B01D90323FDE0814B1B68FC
:1018A00003F48073002BF0D07B68DB68012B06D13A
:1018B0007B4B1B6A7A4A43F0010313622DE07B687D
:1018C000DB68002B0CD1764B1B6A754A23F00103B1
:1018D0001362734B1B6A724A23F0040313621CE009
:1018E0007B68DB68052B0CD16D4B1B6A6C4A43F09F
:1018F000040313626A4B1B6A694A43F001031362D3
:101900000BE0674B1B6A664A23F001031362644BCA
:101910001B6A634A23F0040313627B68DB68002BB5
:1019200015D0FEF7ADFC38610AE0FEF7A9FC0246CF
:101930003B69D31A41F28832934201D90323ABE0C9
:10194000574B1B6A03F00203002BEED014E0FEF7A6
:1019500097FC38610AE0FEF793FC02463B69D31A14
:1019600041F28832934201D9032395E04C4B1B6A24
:1019700003F00203002BEED1FB7D012B05D1484B78
:10198000DB69474A23F08053D3617B68DB69002B16
:1019900000F08180424B5B6803F00C03082B61D0A0
:1019A0007B68DB69022B46D13F4B00221A60FEF7B1
:1019B00067FC386108E0FEF763FC02463B69D31A16
:1019C000022B01D9032367E0354B1B6803F000733A
:1019D000002BF0D17B681B6AB3F5803F08D1304BF8
:1019E0005B6823F400327B689B682D4913434B608E
:1019F0002B4B5B6823F474127B68196A7B685B6A03
:101A00000B43274913434B60274B01221A60FEF713
:101A100037FC386108E0FEF733FC02463B69D31A15
:101A2000022B01D9032337E01D4B1B6803F0007321
:101A3000002BF0D02FE01C4B00221A60FEF720FC98
:101A4000386108E0FEF71CFC02463B69D31A022B02
:101A500001D9032320E0124B1B6803F00073002B15
:101A6000F0D118E07B68DB69012B01D1012313E081
:101A70000B4B5B68FB60FB6803F480327B681B6A7E
:101A80009A4206D1FB6803F470127B685B6A9A4243
:101A900001D0012300E0002318461837BD4680BD61
:101AA00000100240007000406000424280B584B0E7
:101AB00000AF786039607B68002B01D10123D0E052
:101AC0006A4B1B6803F007033A689A4210D9674BC8
:101AD0001B6823F0070265493B6813430B60634BA7
:101AE0001B6803F007033A689A4201D00123B8E06B
:101AF0007B681B6803F00203002B20D07B681B6807
:101B000003F00403002B05D0594B5B68584A43F49B
:101B1000E06353607B681B6803F00803002B05D06B
:101B2000534B5B68524A43F460535360504B5B68BD
:101B300023F0F0027B689B684D4913434B607B6840
:101B40001B6803F00103002B40D07B685B68012B0E
:101B500007D1474B1B6803F40033002B15D1012339
:101B60007FE07B685B68022B07D1414B1B6803F069
:101B70000073002B09D1012373E03D4B1B6803F078
:101B80000203002B01D101236BE0394B5B6823F08A
:101B900003027B685B68364913434B60FEF770FBBA
:101BA000F8600AE0FEF76CFB0246FB68D31A41F2CC
:101BB0008832934201D9032353E02D4B5B6803F035
:101BC0000C027B685B689B009A42EBD1274B1B6839
:101BD00003F007033A689A4210D2244B1B6823F0A3
:101BE000070222493B6813430B60204B1B6803F03C
:101BF00007033A689A4201D0012332E07B681B68F0
:101C000003F00403002B08D0194B5B6823F4E06257
:101C10007B68DB68164913434B607B681B6803F0E5
:101C20000803002B09D0124B5B6823F460527B68D9
:101C30001B69DB000E4913434B6000F021F802469C
:101C40000B4B5B681B0903F00F030A49CB5C22FABC
:101C500003F3094A1360094B1B68184605F04CFA58
:101C6000002318461037BD4680BD00BF002002404B
:101C700000100240887B0008500100200000002076
:101C800090B48AB000AF2A4B3C1D0FCB84E80F0004
:101C900040F201233B800023FB610023BB61002352
:101CA0007B6200237B6100233B62224B5B68FB610C
:101CB000FB6903F00C03042B02D0082B03D02DE0AA
:101CC0001D4B3B622DE0FB699B0C03F00F0307F1FA
:101CD0002802134413F8243C7B61FB6903F480332E
:101CE000002B13D0134B5B685B0C03F0010307F16F
:101CF0002802134413F8283CBB617B690E4A02FB9F
:101D000003F2BB69B2FBF3F37B6204E07B690B4A2D
:101D100002FB03F37B627B6A3B6202E0064B3B62A1
:101D200000BF3B6A18462837BD4690BC704700BFCD
:101D3000BC7900080010024000127A0000093D0042
:101D400080B400AF024B1B681846BD4680BC70478C
:101D50005001002080B500AFFFF7F2FF0246054BAF
:101D60005B681B0A03F007030349CB5C22FA03F309
:101D7000184680BD00100240987B000880B500AF77
:101D8000FFF7DEFF0246054B5B68DB0A03F0070343
:101D90000349CB5C22FA03F3184680BD00100240D1
:101DA000987B000880B483B000AF786039607B68AE
:101DB0000F221A60114B5B6803F003027B685A60C4
:101DC0000E4B5B6803F0F0027B689A600B4B5B681C
:101DD00003F4E0627B68DA60084B5B68DB0803F4BD
:101DE000E0627B681A61064B1B6803F007023B68E0
:101DF0001A6000BF0C37BD4680BC7047001002401F
:101E00000020024080B485B000AF78600A4B1B68A8
:101E10000A4AA2FB03235B0A7A6802FB03F3FB6016
:101E200000BFFB685A1EFA60002BF9D100BF00BF4B
:101E30001437BD4680BC704750010020D34D62105E
:101E400080B586B000AF786000233B610023FB6063
:101E50007B681B6803F00103002B7DD00023FB751A
:101E60004F4BDB6903F08053002B0DD14C4BDB69EA
:101E70004B4A43F08053D361494BDB6903F08053F5
:101E8000BB60BB680123FB75464B1B6803F4807382
:101E9000002B18D1434B1B68424A43F480731360F4
:101EA000FEF7EEF9386108E0FEF7EAF902463B6911
:101EB000D31A642B01D903236DE03A4B1B6803F45A
:101EC0008073002BF0D0364B1B6A03F44073FB6029
:101ED000FB68002B2ED07B685B6803F44073FA68C4
:101EE0009A4227D02E4B1B6A23F44073FB602E4B83
:101EF00001221A602C4B00221A60294AFB681362E7
:101F0000FB6803F00103002B14D0FEF7B9F9386128
:101F10000AE0FEF7B5F902463B69D31A41F288326E
:101F2000934201D9032336E01D4B1B6A03F00203E1
:101F3000002BEED01A4B1B6A23F440727B685B685F
:101F4000174913430B62FB7D012B05D1144BDB6951
:101F5000134A23F08053D3617B681B6803F00203AC
:101F6000002B08D00E4B5B6823F440427B689B68D3
:101F70000B4913434B607B681B6803F01003002B75
:101F800008D0074B5B6823F480027B685B690449D7
:101F900013434B60002318461837BD4680BD00BF71
:101FA00000100240007000404004424280B582B000
:101FB00000AF78607B68002B01D101231DE07B68B6
:101FC00093F83D30DBB2002B06D17B68002283F80A
:101FD0003C20786800F015F87B68022283F83D20E9
:101FE0007B681A687B6804331946104600F062F972
:101FF0007B68012283F83D20002318460837BD4640
:1020000080BD80B483B000AF786000BF0C37BD46A0
:1020100080BC704780B485B000AF78607B681B6877
:10202000DA687B681B6842F00102DA607B681B6833
:102030009B6803F00703FB60FB68062B07D07B68F7
:102040001B681A687B681B6842F001021A60002353
:1020500018461437BD4680BC704780B582B000AFCB
:1020600078607B681B681B6903F00203022B22D196
:102070007B681B68DB6803F00203022B1BD17B68C3
:102080001B686FF002021A617B6801221A777B6875
:102090001B689B6903F00303002B03D0786800F0F2
:1020A000EDF805E0786800F0E0F8786800F0EFF807
:1020B0007B6800221A777B681B681B6903F00403A6
:1020C000042B22D17B681B68DB6803F00403042B1C
:1020D0001BD17B681B686FF004021A617B680222C7
:1020E0001A777B681B689B6903F44073002B03D04D
:1020F000786800F0C3F805E0786800F0B6F8786812
:1021000000F0C5F87B6800221A777B681B681B69A2
:1021100003F00803082B22D17B681B68DB6803F0FF
:102120000803082B1BD17B681B686FF008021A613B
:102130007B6804221A777B681B68DB6903F0030362
:10214000002B03D0786800F099F805E0786800F07B
:102150008CF8786800F09BF87B6800221A777B681F
:102160001B681B6903F01003102B22D17B681B68CE
:10217000DB6803F01003102B1BD17B681B686FF02A
:1021800010021A617B6808221A777B681B68DB697A
:1021900003F44073002B03D0786800F06FF805E07B
:1021A000786800F062F8786800F071F87B680022C7
:1021B0001A777B681B681B6903F00103012B0ED1A2
:1021C0007B681B68DB6803F00103012B07D17B6888
:1021D0001B686FF001021A61786804F0D3FE7B6817
:1021E0001B681B6903F08003802B0ED17B681B6882
:1021F000DB6803F08003802B07D17B681B686FF0DE
:1022000080021A61786800F0D8F87B681B681B6947
:1022100003F04003402B0ED17B681B68DB6803F0A2
:102220004003402B07D17B681B686FF040021A61A6
:10223000786800F035F87B681B681B6903F02003A1
:10224000202B0ED17B681B68DB6803F02003202B5A
:1022500007D17B681B686FF020021A61786800F074
:10226000A3F800BF0837BD4680BD80B483B000AF7F
:10227000786000BF0C37BD4680BC704780B483B027
:1022800000AF786000BF0C37BD4680BC704780B49B
:1022900083B000AF786000BF0C37BD4680BC70478C
:1022A00080B483B000AF786000BF0C37BD4680BCFF
:1022B0007047000080B485B000AF786039607B68FB
:1022C0001B68FB607B68334A934213D07B68324AB9
:1022D00093420FD07B68B3F1804F0BD07B682F4ABD
:1022E000934207D07B682E4A934203D07B682D4AE5
:1022F000934208D1FB6823F07003FB603B685B6886
:10230000FA681343FB607B68224A934213D07B68D0
:10231000214A93420FD07B68B3F1804F0BD07B688A
:102320001E4A934207D07B681D4A934203D07B68C4
:102330001C4A934208D1FB6823F44073FB603B685E
:10234000DB68FA681343FB60FB6823F080023B689C
:102350005B691343FB607B68FA681A603B689A68A4
:102360007B68DA623B681A687B689A627B68094A14
:10237000934203D07B68084A934203D13B681A69B1
:102380007B681A637B6801225A6100BF1437BD461F
:1023900080BC7047002C0140003401400004004024
:1023A00000080040000C004080B483B000AF7860AB
:1023B00000BF0C37BD4680BC704780B483B000AF0F
:1023C000786000BF0C37BD4680BC704780B582B0D6
:1023D00000AF78607B68002B01D101233FE07B6870
:1023E00093F83930DBB2002B06D17B68002283F8EA
:1023F0003820786804F034FE7B68242283F8392082
:102400007B681B68DA687B681B6822F40052DA601C
:10241000786800F029F87B681B681A697B681B687C
:1024200022F490421A617B681B685A697B681B68BA
:1024300022F02A025A617B681B68DA687B681B6895
:1024400042F40052DA607B680022DA637B68202263
:1024500083F839207B68202283F83A20002318462D
:102460000837BD4680BD000080B584B000AF7860FD
:102470007B681B681B6923F440517B68DA687B68C2
:102480001B680A431A617B689A687B681B691A4358
:102490007B685B691343FB607B681B68DB6823F424
:1024A000B05323F00C037A681268F9680B43D360C9
:1024B0007B681B685B6923F440717B689A697B6861
:1024C0001B680A435A617B681B68524A93424ED18B
:1024D000FFF754FCB860BA6813469B0013449A0097
:1024E0001A447B685B689B00B2FBF3F34A4AA2FB89
:1024F00003235B091901BA6813469B0013449A0031
:102500001A447B685B689B00B2FBF3F2424BA3FB6F
:1025100002035B09642000FB03F3D31A1B0132336F
:102520003D4AA2FB03235B0903F0F0031944BA6898
:1025300013469B0013449A001A447B685B689B0017
:10254000B2FBF3F2344BA3FB02035B09642000FBF4
:1025500003F3D31A1B0132332F4AA2FB03235B0977
:1025600003F00F027B681B680A449A604DE0FFF796
:10257000F1FBB860BA6813469B0013449A001A44F2
:102580007B685B689B00B2FBF3F3234AA2FB032347
:102590005B091901BA6813469B0013449A001A4458
:1025A0007B685B689B00B2FBF3F21B4BA3FB02034F
:1025B0005B09642000FB03F3D31A1B013233164A74
:1025C000A2FB03235B0903F0F0031944BA68134626
:1025D0009B0013449A001A447B685B689B00B2FB23
:1025E000F3F20D4BA3FB02035B09642000FB03F332
:1025F000D31A1B013233084AA2FB03235B0903F001
:102600000F027B681B680A449A6000BF1037BD4602
:1026100080BD00BF003801401F85EB5184B080B4FD
:1026200083B000AF786007F1140080E80E0000234B
:1026300018460C37BD4680BC04B0704780B485B0E6
:1026400000AF78604FF43F43FB817B68B3F84030C4
:102650009AB2FB8913439AB27B68A3F84020002307
:1026600018461437BD4680BC704780B485B000AFB3
:1026700078604FF43F43FB817B68B3F840309BB2F6
:102680001AB2B7F90E30DB431BB213401BB29AB239
:102690007B68A3F84020002318461437BD4680BC51
:1026A000704780B483B000AF78600B46FB700023A6
:1026B00018460C37BD4680BC704784B080B582B0E8
:1026C00000AF786007F1140080E80E007B680122FB
:1026D000A3F840207B680022A3F840207B680022FA
:1026E000A3F844207B680022A3F850207868FFF705
:1026F000A5FF002318460837BD46BDE8804004B05A
:102700007047000090B484B000AF78603960002357
:10271000FB737A683B681B789B0013441B889BB251
:1027200023F4EC4323F07003BB813B68DB78032B7D
:1027300019D801A252F823F0492700085D270008A4
:102740006D27000853270008BB8943F40073BB8141
:102750000DE0BB8943F4C063BB8108E0BB8943F44F
:102760008063BB8103E00123FB7300E000BF7A6854
:102770003B681B789B001A44BB8943F07F4343F4BA
:102780007F0343F4004343F080039BB213807A68D5
:102790003B681B789B0013441B889BB223F4E043E7
:1027A00023F070039AB23B681B789BB213439CB230
:1027B0007A683B681B789B001A448A4B23439BB280
:1027C00013803B681B7B002B40F012813B685B78D9
:1027D000002B67D07C687B68B3F850309BB21C44F8
:1027E0003B681B781B01234403F580631C463B6850
:1027F000DB885B089BB25B009BB223807A683B68F6
:102800001B789B0013441B889CB2234603F04003B3
:10281000002B14D07A683B681B789B0013441B88FC
:102820009BB223F4E04323F070039CB27A683B68C8
:102830001B789B001A446C4B23439BB213803B686C
:10284000DB78012B18D07A683B681B789B00134417
:102850001B889BB223F4E04323F040039CB284F036
:1028600020039CB27A683B681B789B001A445D4B3E
:1028700023439BB213802BE27A683B681B789B0052
:1028800013441B889BB223F4E04323F040039CB223
:102890007A683B681B789B001A44524B23439BB2D7
:1028A000138015E27C687B68B3F850309BB21C44FF
:1028B0003B681B781B01234403F581631C463B687E
:1028C000DB885B089BB25B009BB223807C687B68E3
:1028D000B3F850309BB21C443B681B781B01234467
:1028E00003F20C431C463B681B69002B0ED1238866
:1028F0009BB223F4F8439BB2238023889BB26FEAF8
:1029000043436FEA53439BB223802DE03B681B692E
:102910003E2B12D83B681B695B08BB603B681B6998
:1029200003F00103002B02D0BB680133BB60BB681E
:102930009BB29B029BB2238016E03B681B695B093C
:10294000BB603B681B6903F01F03002B02D1BB680F
:10295000013BBB60BB689BB29B029BB26FEA4343E7
:102960006FEA53439BB223807A683B681B789B00D5
:1029700013441B889CB2234603F48043002B14D0DD
:102980007A683B681B789B0013441B889BB223F436
:10299000E04323F070039CB27A683B681B789B008D
:1029A0001A44124B23439BB213807A683B681B780E
:1029B0009B0013441B889BB223F4804323F07003D5
:1029C0009CB284F480539CB284F400539CB27A6825
:1029D0003B681B789B001A44024B23439BB2138035
:1029E00076E100BF8080FFFFC080FFFF80C0FFFF57
:1029F0007A683B681B789B0013441B889BB223F4C6
:102A0000E04323F070039CB27A683B681B789B001C
:102A10001A44964B23439BB213807C687B68B3F8BF
:102A200050309BB21C443B681B781B01234403F5C8
:102A300080631C463B681B895B089BB25B009BB2B2
:102A400023807C687B68B3F850309BB21C443B68A1
:102A50001B781B01234403F581631C463B685B899B
:102A60005B089BB25B009BB223803B685B78002BCA
:102A700040F088807A683B681B789B0013441B8871
:102A80009CB2234603F48043002B14D07A683B6841
:102A90001B789B0013441B889BB223F4E04323F074
:102AA00070039CB27A683B681B789B001A44704B99
:102AB00023439BB213807A683B681B789B001344C6
:102AC0001B889CB2234603F04003002B14D07A6885
:102AD0003B681B789B0013441B889BB223F4E043A4
:102AE00023F070039CB27A683B681B789B001A4401
:102AF000604B23439BB213807A683B681B789B0032
:102B000013441B889BB223F4E04323F070039CB270
:102B10007A683B681B789B001A44564B23439BB250
:102B200013807A683B681B789B0013441B889BB218
:102B300023F4804323F070039CB284F480539CB24E
:102B400084F400539CB27A683B681B789B001A445B
:102B5000494B23439BB213807A683B681B789B00E8
:102B600013441B889BB223F4E04323F040039CB240
:102B70007A683B681B789B001A443F4B23439BB207
:102B80001380A5E07A683B681B789B0013441B8880
:102B90009CB2234603F48043002B14D07A683B6830
:102BA0001B789B0013441B889BB223F4E04323F063
:102BB00070039CB27A683B681B789B001A442C4BCC
:102BC00023439BB213807A683B681B789B001344B5
:102BD0001B889CB2234603F04003002B14D07A6874
:102BE0003B681B789B0013441B889BB223F4E04393
:102BF00023F070039CB27A683B681B789B001A44F0
:102C00001C4B23439BB213807A683B681B789B0064
:102C100013441B889BB223F4E04323F070039CB25F
:102C20007A683B681B789B001A44114B23439BB284
:102C300013803B68DB78012B20D07A683B681B78D7
:102C40009B0013441B889BB223F4E04323F0400312
:102C50009CB284F020039CB27A683B681B789B008E
:102C60001A44054B23439BB213801CE08081FFFF75
:102C700080C0FFFFC080FFFF8080FFFF7A683B6855
:102C80001B789B0013441B889BB223F4E04323F082
:102C900040039CB27A683B681B789B001A440F4B38
:102CA00023439BB213807A683B681B789B001344D4
:102CB0001B889BB223F4804323F070039CB27A6894
:102CC0003B681B789B001A44044B23439BB2138040
:102CD000FB7B18461037BD4690BC70478080FFFFD5
:102CE00090B482B000AF786039603B681B7B002BEA
:102CF00071D13B685B78002B36D07A683B681B78D3
:102D00009B0013441B889CB2234603F04003002B16
:102D100014D07A683B681B789B0013441B889BB2D5
:102D200023F4E04323F070039CB27A683B681B787D
:102D30009B001A446B4B23439BB213807A683B6819
:102D40001B789B0013441B889BB223F4E04323F0C1
:102D500040039CB27A683B681B789B001A44624B24
:102D600023439BB2138044E17A683B681B789B0045
:102D700013441B889CB2234603F48043002B14D0D9
:102D80007A683B681B789B0013441B889BB223F432
:102D9000E04323F070039CB27A683B681B789B0089
:102DA0001A44524B23439BB213807A683B681B78CA
:102DB0009B0013441B889BB223F4804323F07003D1
:102DC0009CB27A683B681B789B001A44464B2343AD
:102DD0009BB213800DE13B685B78002B40F088804C
:102DE0007A683B681B789B0013441B889CB223467F
:102DF00003F48043002B14D07A683B681B789B0057
:102E000013441B889BB223F4E04323F070039CB26D
:102E10007A683B681B789B001A44344B23439BB26F
:102E200013807A683B681B789B0013441B889CB214
:102E3000234603F04003002B14D07A683B681B78CC
:102E40009B0013441B889BB223F4E04323F07003E0
:102E50009CB27A683B681B789B001A44214B234341
:102E60009BB213807A683B681B789B0013441B88D5
:102E70009BB223F4E04323F070039CB27A683B6872
:102E80001B789B001A44174B23439BB213807A682C
:102E90003B681B789B0013441B889BB223F4804340
:102EA00023F070039CB27A683B681B789B001A443D
:102EB0000D4B23439BB213807A683B681B789B00C1
:102EC00013441B889BB223F4E04323F040039CB2DD
:102ED0007A683B681B789B001A44034B23439BB2E0
:102EE000138086E0C080FFFF8080FFFF80C0FFFF6F
:102EF0007A683B681B789B0013441B889CB223466E
:102F000003F48043002B14D07A683B681B789B0045
:102F100013441B889BB223F4E04323F070039CB25C
:102F20007A683B681B789B001A44354B23439BB25D
:102F300013807A683B681B789B0013441B889CB203
:102F4000234603F04003002B14D07A683B681B78BB
:102F50009B0013441B889BB223F4E04323F07003CF
:102F60009CB27A683B681B789B001A44254B23432C
:102F70009BB213807A683B681B789B0013441B88C4
:102F80009BB223F4E04323F070039CB27A683B6861
:102F90001B789B001A441A4B23439BB213807A6818
:102FA0003B681B789B0013441B889BB223F4E043CF
:102FB00023F040039CB27A683B681B789B001A445C
:102FC000114B23439BB213807A683B681B789B00AC
:102FD00013441B889BB223F4804323F070039CB2FC
:102FE0007A683B681B789B001A44074B23439BB2CB
:102FF0001380002318460837BD4690BC704700BFB9
:1030000080C0FFFFC080FFFF8080FFFF90B58DB0C4
:1030100000AF786039603B685B78012B40F06081DD
:103020003B689A693B681B699A4209D93B681B69EE
:10303000BB623B689A69BB6AD21A3B689A6105E039
:103040003B689B69BB623B6800229A613B681B7BC3
:10305000002B19D13B6859693B68DA88BB6A9BB27F
:10306000786800F0A2FB7C687B68B3F850309BB2B4
:103070001C443B681B781B01234403F204431C4699
:10308000BB6A9BB223800FE17A683B681B789B0088
:1030900013441B889BB203F04003002B65D07C686F
:1030A0003B685B78002B48D17C687B68B3F8503074
:1030B0009BB21C443B681B781B01234403F20C4366
:1030C0001C46BB6A002B0ED123889BB223F4F84325
:1030D0009BB2238023889BB26FEA43436FEA53433A
:1030E0009BB223803DE0BB6A3E2B10D8BB6A5B08D5
:1030F0007B62BB6A03F00103002B02D07B6A0133C1
:103100007B627B6A9BB29B029BB2238029E0BB6AF5
:103110005B097B62BB6A03F01F03002B02D17B6A51
:10312000013B7B627B6A9BB29B029BB26FEA43438B
:103130006FEA53439BB2238013E03B685B78012B1B
:103140000FD17B68B3F850309BB21C443B681B78AE
:103150001B01234403F20C43FB60BB6A9AB2FB6879
:103160001A803B685B89FB8563E03B685B78002BDA
:1031700048D17C687B68B3F850309BB21C443B68F4
:103180001B781B01234403F204431C46BB6A002B3B
:103190000ED123889BB223F4F8439BB2238023886B
:1031A0009BB26FEA43436FEA53439BB223803DE0F7
:1031B000BB6A3E2B10D8BB6A5B083B62BB6A03F05C
:1031C0000103002B02D03B6A01333B623B6A9BB296
:1031D0009B029BB2238029E0BB6A5B093B62BB6A0E
:1031E00003F01F03002B02D13B6A013B3B623B6AA9
:1031F0009BB29B029BB26FEA43436FEA53439BB27D
:10320000238013E03B685B78012B0FD17C687B68DF
:10321000B3F850309BB21C443B681B781B0123441D
:1032200003F204431C46BB6A9BB223803B681B89A4
:10323000FB853B685969BB6A9BB2FA8D786800F0E0
:10324000B4FA3B685B78002B15D17A683B681B7831
:103250009B0013441B889BB223F4E04323F07003CC
:103260009CB27A683B681B789B001A449A4B2343B4
:103270009BB2138018E03B685B78012B14D17A680D
:103280003B681B789B0013441B889BB223F4E043EC
:1032900023F070039CB27A683B681B789B001A4449
:1032A0008E4B23439BB213807A683B681B789B004C
:1032B00013441B889BB223F4E04323F040039CB2E9
:1032C00084F010039CB284F020039CB27A683B68BF
:1032D0001B789B001A44824B23439BB2138046E128
:1032E0003B689A693B681B699A4209D93B681B692C
:1032F000BB623B689A69BB6AD21A3B689A6105E077
:103300003B689B69BB623B6800229A613B681B7B00
:10331000002B48D17C687B68B3F850309BB21C44CA
:103320003B681B781B01234403F20C431C46BB6A19
:10333000002B0ED123889BB223F4F8439BB2238049
:1033400023889BB26FEA43436FEA53439BB22380C7
:10335000F2E0BB6A3E2B10D8BB6A5B08FB61BB6A1C
:1033600003F00103002B02D0FB690133FB61FB6911
:103370009BB29B029BB22380DEE0BB6A5B09FB61D0
:10338000BB6A03F01F03002B02D1FB69013BFB6109
:10339000FB699BB29B029BB26FEA43436FEA5343C4
:1033A0009BB22380C8E03B685B78002B48D17C68E7
:1033B0007B68B3F850309BB21C443B681B781B0100
:1033C000234403F204431C46BB6A002B0ED123881E
:1033D0009BB223F4F8439BB2238023889BB26FEA0D
:1033E00043436FEA53439BB223803DE0BB6A3E2BCD
:1033F00010D8BB6A5B08BB61BB6A03F00103002BFA
:1034000002D0BB690133BB61BB699BB29B029BB21B
:10341000238029E0BB6A5B09BB61BB6A03F01F0321
:10342000002B02D1BB69013BBB61BB699BB29B0214
:103430009BB26FEA43436FEA53439BB2238013E08E
:103440003B685B78012B0FD17C687B68B3F8503008
:103450009BB21C443B681B781B01234403F20443CA
:103460001C46BB6A9BB223807C683B685B78002B60
:103470004ED17C687B68B3F850309BB21C443B68EB
:103480001B781B01234403F20C431C46BB6A002B30
:103490000ED123889BB223F4F8439BB22380238868
:1034A0009BB26FEA43436FEA53439BB2238043E0EE
:1034B000BB6A3E2B16D8BB6A5B087B61BB6A03F014
:1034C0000103002B02D07B6901337B617B699BB2D6
:1034D0009B029BB223802FE0C080FFFF80C0FFFFD4
:1034E0008080FFFFBB6A5B097B61BB6A03F01F033F
:1034F000002B02D17B69013B7B617B699BB29B0204
:103500009BB26FEA43436FEA53439BB2238013E0BD
:103510003B685B78012B0FD17B68B3F850309BB2CE
:103520001C443B681B781B01234403F20C433B61A2
:10353000BB6A9AB23B691A807A683B681B789B0029
:1035400013441B889BB223F4804323F070039CB286
:1035500084F480539CB284F400539CB27A683B6834
:103560001B789B001A44044B23439BB21380002317
:1035700018463437BD4690BD8080FFFF90B482B0BE
:1035800000AF786039603B685B78002B18D07A68B0
:103590003B681B789B0013441B889BB223F4E043D9
:1035A00023F040039CB284F010039CB27A683B681D
:1035B0001B789B001A44114B23439BB2138017E0E6
:1035C0007A683B681B789B0013441B889BB223F4EA
:1035D000804323F070039CB284F480539CB27A68D9
:1035E0003B681B789B001A44044B23439BB2138017
:1035F000002318460837BD4690BC70478080FFFF07
:1036000090B482B000AF786039603B681B7B002BC0
:103610007DD13B685B78002B3DD07A683B681B7896
:103620009B0013441B889CB2234603F04003002BED
:1036300014D07A683B681B789B0013441B889BB2AC
:1036400023F4E04323F070039CB27A683B681B7854
:103650009B001A44314B23439BB213803B68DB78B9
:10366000012B54D07A683B681B789B0013441B885D
:103670009BB223F4E04323F040039CB284F0200388
:103680009CB27A683B681B789B001A44244B234306
:103690009BB213803BE07A683B681B789B00134425
:1036A0001B889CB2234603F48043002B14D07A6815
:1036B0003B681B789B0013441B889BB223F4E043B8
:1036C00023F070039CB27A683B681B789B001A4415
:1036D000144B23439BB213807A683B681B789B0092
:1036E00013441B889BB223F4804323F070039CB2E5
:1036F00084F480539CB284F400539CB27A683B6893
:103700001B789B001A44064B23439BB21380002373
:1037100018460837BD4690BC704700BFC080FFFF09
:103720008080FFFF80C0FFFF80B483B000AF78606F
:103730000B46FB70FB78002B03D17B688022A3F83B
:103740004C20002318460C37BD4680BC704780B41F
:1037500083B000AF7860002318460C37BD4680BCAC
:10376000704780B483B000AF7860002318460C37F0
:10377000BD4680BC704780B485B000AF78607B6880
:10378000B3F844309BB2FB60FB6818461437BD4663
:1037900080BC704780B483B000AF7860396000238C
:1037A00018460C37BD4680BC704780B48DB000AF62
:1037B000F860B96011461A460B46FB801346BB8081
:1037C000BB8801335B083B62FB68FB61BB687B62C3
:1037D000FB885A00FB69134403F58063BB623B6AB4
:1037E000FB621EE07B6A1B78BB617B6A01337B62F4
:1037F0007B6A1B789BB21B029BB21A46BB691343C0
:103800007B617B699AB2BB6A1A80BB6A0233BB6276
:10381000BB6A0233BB627B6A01337B62FB6A013B9A
:10382000FB62FB6A002BDDD100BF00BF3437BD4611
:1038300080BC704780B48BB000AFF860B9601146AF
:103840001A460B46FB801346BB80BB885B089BB2C5
:10385000BB61FB687B61BB68FB61FB885A007B69CD
:10386000134403F580633B62BB697B621BE03B6AE8
:103870001B889BB23B613B6A02333B623B69DAB215
:10388000FB691A70FB690133FB613B691B0ADAB201
:10389000FB691A70FB690133FB613B6A02333B62CF
:1038A0007B6A013B7B627B6A002BE0D1BB8803F023
:1038B00001039BB2002B07D03B6A1B889BB23B6184
:1038C0003B69DAB2FB691A7000BF2C37BD4680BC79
:1038D000704780B582B000AF78600B46FB70402324
:1038E00003228121786803F002FE7B680122DA62FC
:1038F000102003F009FF02467B68C3F8B8227B68FA
:10390000D3F8B832002B01D1022305E07B68D3F84D
:10391000B83200221A73002318460837BD4680BD0E
:1039200080B582B000AF78600B46FB70812178686B
:1039300003F003FE7B680022DA627B68D3F8B832BA
:10394000002B09D07B68D3F8B832184603F0E8FEA4
:103950007B680022C3F8B822002318460837BD460A
:1039600080BD000080B588B000AF786039607B68AA
:10397000D3F8B8323B610023FB830023BB610023F3
:10398000FB810023FB753B681B7803F06003002B71
:1039900045D0202B40F0D3803B685B78023B092B5D
:1039A00035D801A252F823F0FF390008DF390008AA
:1039B0000F3A00080F3A00080F3A00080F3A0008C3
:1039C0000F3A00080F3A0008ED390008D139000815
:1039D0003B685B88DBB21A463B691A601EE03B69B4
:1039E00001221946786801F044F917E03B685B88CA
:1039F0001B0A9BB2DBB21A463B695A600EE03B6978
:103A0000043301221946786801F033F906E0396879
:103A1000786801F0C4F80223FB7500BF96E03B68AC
:103A20005B780B2B00F2838001A252F823F000BFD9
:103A3000613A00082F3B00082F3B00082F3B00088D
:103A40002F3B00082F3B0008893A00082F3B000855
:103A50002F3B00082F3B0008E13A0008093B000813
:103A60007B6893F89C32032B07D107F10E030222E7
:103A70001946786801F0FDF860E03968786801F06F
:103A80008EF80223FB7559E03B685B881B0A9BB2EA
:103A9000222B08D13B68DB88562B28BF5623FB839B
:103AA0002D4BBB6115E03B685B881B0A9BB2212B49
:103AB00008D12A4BBB613B68DB88092B28BF09234F
:103AC000FB8306E03968786801F069F80223FB752A
:103AD00034E0FB8B1A46B969786801F0CAF82DE02A
:103AE0007B6893F89C32032B07D13B690833012292
:103AF0001946786801F0BDF820E03968786801F06F
:103B00004EF80223FB7519E07B6893F89C32032B77
:103B100006D13B685B88DBB21A463B699A600DE0D0
:103B20003968786801F03BF80223FB7506E03968D4
:103B3000786801F034F80223FB7500BF06E03968AD
:103B4000786801F02CF80223FB7500BFFB7D184656
:103B50002037BD4680BD00BFDC000020C40000202F
:103B600080B586B000AFF860B9601346FB80FB6893
:103B7000D3F8B8327B61FB6893F89C32032B0CD1ED
:103B80007B691B7B002B08D17B6901221A73FB88A0
:103B9000BA688121F86803F071FD002318461837D0
:103BA000BD4680BD80B483B000AF78607B682922B9
:103BB0001A80034B18460C37BD4680BC704700BFC7
:103BC0004000002080B483B000AF78607B68292279
:103BD0001A80034B18460C37BD4680BC704700BFA7
:103BE0006C00002080B483B000AF78607B6829222D
:103BF0001A80034B18460C37BD4680BC704700BF87
:103C00009800002080B483B000AF78600B46FB7052
:103C10007B68D3F8B83200221A73002318460C3799
:103C2000BD4680BC7047000080B483B000AF7860B0
:103C30007B680A221A80034B18460C37BD4680BCAD
:103C4000704700BFD000002080B584B000AFF8609E
:103C5000B9601346FB71FB68002B01D102231AE007
:103C6000FB68D3F8B432002B03D0FB680022C3F802
:103C7000B422BB68002B03D0FB68BA68C3F8B0223B
:103C8000FB68012283F89C22FB68FA791A70F868B5
:103C900003F0CAFB002318461037BD4680BD80B430
:103CA00085B000AF786039600023FB733B68002B60
:103CB00006D07B683A68C3F8B4220023FB7301E0A6
:103CC0000223FB73FB7B18461437BD4680BC70474C
:103CD00080B582B000AF7860786803F0EDFB002318
:103CE00018460837BD4680BD80B483B000AF786009
:103CF000002318460C37BD4680BC704780B584B0A1
:103D000000AF78600B46FB700223FB737B68D3F82F
:103D1000B432002B0CD07B68D3F8B4321B68FA782D
:103D20001146786898470346002B01D10023FB73A6
:103D3000FB7B18461037BD4680BD80B582B000AF12
:103D400078600B46FB707B68D3F8B4325B68FA7816
:103D5000114678689847002318460837BD4680BD4D
:103D600080B582B000AF786039607B6803F52A7354
:103D70003968184600F0D7FE7B680122C3F8942208
:103D80007B68B3F8AE321A467B68C3F898227B682A
:103D900093F8A83203F01F03022B16D0022B1CD875
:103DA000002B02D0012B08D017E07B6803F52A73A3
:103DB0001946786800F0CAF91AE07B6803F52A739F
:103DC0001946786800F02CFA12E07B6803F52A7334
:103DD0001946786800F06CFA0AE07B6893F8A8321C
:103DE00023F07F03DBB21946786803F0C5FB00BF00
:103DF000002318460837BD4680BD80B586B000AFA9
:103E0000F8600B467A60FB72FB7A002B4BD1FB68A3
:103E100003F5AA737B61FB68D3F89432032B34D18A
:103E20007B69DA687B691B699A4219D97B69DA6810
:103E30007B691B69D21A7B69DA607B69DA687B6906
:103E40001B699A4203D27B69DB689BB202E07B6903
:103E50001B699BB21A467968F86800F038FF38E0B1
:103E6000FB68D3F8B4321B69002B0AD0FB6893F8C7
:103E70009C32032B05D1FB68D3F8B4321B69F86878
:103E80009847F86800F035FF23E0FB68D3F89432D8
:103E9000052B1ED1FB680022C3F894220021F8688C
:103EA00003F06AFB15E0FB68D3F8B4329B69002B82
:103EB0000DD0FB6893F89C32032B08D1FB68D3F834
:103EC000B4329B69FA7A1146F868984701E00223F8
:103ED00000E0002318461837BD4680BD80B586B087
:103EE00000AFF8600B467A60FB72FB7A002B7FD143
:103EF000FB6814337B61FB68D3F89432022B5CD1EE
:103F00007B69DA687B691B699A4215D97B69DA6833
:103F10007B691B69D21A7B69DA607B69DB689BB2BB
:103F20001A467968F86800F0C0FE002300220021DC
:103F3000F86803F0C6FB4EE07B699B687A691269FA
:103F4000B3FBF2F102FB01F29B1A002B1CD17B693F
:103F50009A687B691B699A4216D37B699A68FB68E9
:103F6000D3F898329A420FD200220021F86800F06C
:103F70009CFEFB680022C3F8982200230022002147
:103F8000F86803F09EFB26E0FB68D3F8B432DB68E8
:103F9000002B0AD0FB6893F89C32032B05D1FB68F9
:103FA000D3F8B432DB68F86898478021F86803F0EA
:103FB000E3FAF86800F0B0FE0DE0FB68D3F8943245
:103FC000042B04D0FB68D3F89432002B03D180215A
:103FD000F86803F0D1FAFB6893F8A032012B1DD1E9
:103FE000F868FFF781FEFB68002283F8A02215E045
:103FF000FB68D3F8B4325B69002B0DD0FB6893F8F3
:104000009C32032B08D1FB68D3F8B4325B69FA7A8F
:104010001146F868984701E0022300E000231846A3
:104020001837BD4680BD80B582B000AF78604023B0
:1040300000220021786803F05AFA7B680122C3F855
:1040400058217B684022C3F864214023002280214C
:10405000786803F04CFA7B6801229A617B68402201
:104060005A627B68012283F89C227B680022C3F895
:1040700094227B6800225A607B680022C3F8A42245
:104080007B68D3F8B832002B09D07B68D3F8B43200
:104090005B687A685268D2B2114678689847002304
:1040A00018460837BD4680BD80B483B000AF786045
:1040B0000B46FB707B68FA781A74002318460C379D
:1040C000BD4680BC704780B483B000AF78607B6829
:1040D00093F89C227B6883F89D227B68042283F8F6
:1040E0009C22002318460C37BD4680BC704780B424
:1040F00083B000AF78607B6893F89C32042B05D1C5
:104100007B6893F89D227B6883F89C2200231846E5
:104110000C37BD4680BC704780B582B000AF786078
:104120007B6893F89C32032B0BD17B68D3F8B432B5
:10413000DB69002B05D07B68D3F8B432DB69786883
:104140009847002318460837BD4680BD80B584B027
:1041500000AF786039600023FB733B681B7803F085
:104160006003402B05D0402B4FD8002B09D0202BCB
:104170004BD17B68D3F8B4329B683968786898472C
:1041800048E03B685B78092B39D801A252F823F04C
:10419000E1410008F5410008FF410008EB4100083B
:1041A000FF410008C3410008B9410008FF41000871
:1041B000D7410008CD4100083968786800F0DCF983
:1041C00022E03968786800F03FFB1DE039687868C4
:1041D00000F07EFB18E03968786800F007FC13E017
:1041E0003968786800F037FC0EE03968786800F0CC
:1041F00065FC09E03968786800F074FC04E039680F
:10420000786800F0CCFC00BF04E03968786800F002
:10421000C6FC00BFFB7B18461037BD4680BD00BF03
:1042200080B584B000AF786039600023FB733B68D1
:104230001B7803F06003402B05D0402B2ED8002BB9
:1042400001D0202B2AD17B6893F89C32013B022BB2
:104250001DD83B689B88DBB2012B13D87B68D3F851
:10426000B4329B683968786898470346FB733B68AB
:10427000DB88002B10D1FB7B002B0DD1786800F080
:1042800038FD09E03968786800F089FC04E0396895
:10429000786800F084FC00E000BF04E039687868CA
:1042A00000F07DFC00BF002318461037BD4680BDDE
:1042B00080B584B000AF786039600023FB733B6841
:1042C0009B88BB733B681B7803F06003402B07D0CF
:1042D000402B00F24681002B0AD0202B40F0418178
:1042E0007B68D3F8B4329B683968786898473DE1B9
:1042F0003B681B7803F06003202B0AD17B68D3F85E
:10430000B4329B683968786898470346FB73FB7B37
:104310002DE13B685B78032B07D0032B00F31B8157
:10432000002B72D0012B3AD015E17B6893F89C32B8
:10433000022B02D0032B15D02BE0BB7B002B0CD023
:10434000BB7B802B09D0BB7B1946786803F014F93E
:104350008021786803F010F920E03968786800F06F
:104360001EFC1BE03B685B88002B0ED1BB7B002B47
:104370000BD0BB7B802B08D03B68DB88002B04D1A3
:10438000BB7B1946786803F0F7F8786800F0B1FC59
:1043900004E03968786800F002FC00BFE0E07B6868
:1043A00093F89C32022B02D0032B15D026E0BB7B66
:1043B000002B0CD0BB7B802B09D0BB7B19467868C7
:1043C00003F0DAF88021786803F0D6F81CE0396849
:1043D000786800F0E4FB17E03B685B88002B12D1A3
:1043E000BB7B03F07F03002B04D0BB7B19467868AE
:1043F00003F0E1F8786800F07CFC04E03968786844
:1044000000F0CDFB00E000BFAAE07B6893F89C328F
:10441000022B02D0032B32D097E0BB7B002B07D0BE
:10442000BB7B802B04D03968786800F0B8FB91E042
:1044300097F90E30002B0BDABB7B03F07F0213469B
:104440009B0013449B0010337A68134404330BE041
:10445000BB7B03F07F0213469B0013449B0003F5D4
:10446000A8737A6813440433BB60BB6800221A60E7
:10447000BB6802221946786800F0FBFB6AE097F9F6
:104480000E30002B11DABB7B03F00F027968134664
:104490009B0013449B000B4418331B68002B17D15F
:1044A0003968786800F07BFB54E0BB7B03F00F02B7
:1044B000796813469B0013449B000B4403F5AC73CF
:1044C0001B68002B04D13968786800F068FB41E074
:1044D00097F90E30002B0BDABB7B03F07F021346FB
:1044E0009B0013449B0010337A68134404330BE0A1
:1044F000BB7B03F07F0213469B0013449B0003F534
:10450000A8737A6813440433BB60BB7B002B02D0D2
:10451000BB7B802B03D1BB6800221A600EE0BB7B03
:104520001946786803F066F80346002B03D0BB6891
:1045300001221A6002E0BB6800221A60BB680222F6
:104540001946786800F095FB04E03968786800F057
:1045500026FB00BF04E03968786800F020FB00BF4C
:1045600004E03968786800F01AFB00BFFB7B18464E
:104570001037BD4680BD000080B584B000AF7860C4
:10458000396000233B810023FB600023FB723B6802
:104590005B881B0A9BB2013B062B00F2288101A21B
:1045A00052F823F0C1450008D94500081946000813
:1045B000EF470008EF4700088F470008BB47000897
:1045C0007B68D3F8B0321B687A68127C07F1080167
:1045D00010469847F86012E17B681B7C002B0DD1D8
:1045E0007B68D3F8B4329B6A07F1080210469847FB
:1045F000F860FB68013302221A7000E17B68D3F88F
:10460000B432DB6A07F1080210469847F860FB688D
:10461000013302221A70F2E03B685B88DBB2052BA3
:1046200000F2AC8001A252F823F000BF454600081A
:1046300079460008AD460008E14600081547000825
:10464000494700087B68D3F8B0325B68002B0BD079
:104650007B68D3F8B0325B687A68127C07F1080196
:1046600010469847F86091E03968786800F097FA4A
:10467000FB7A0133FB7289E07B68D3F8B0329B6828
:10468000002B0BD07B68D3F8B0329B687A68127C21
:1046900007F1080110469847F86077E039687868B4
:1046A00000F07DFAFB7A0133FB726FE07B68D3F890
:1046B000B032DB68002B0BD07B68D3F8B032DB68FC
:1046C0007A68127C07F1080110469847F8605DE0AF
:1046D0003968786800F063FAFB7A0133FB7255E0C1
:1046E0007B68D3F8B0321B69002B0BD07B68D3F802
:1046F000B0321B697A68127C07F1080110469847AE
:10470000F86043E03968786800F049FAFB7A0133D1
:10471000FB723BE07B68D3F8B0325B69002B0BD0B7
:104720007B68D3F8B0325B697A68127C07F10801C4
:1047300010469847F86029E03968786800F02FFA49
:10474000FB7A0133FB7221E07B68D3F8B0329B69BE
:10475000002B0BD07B68D3F8B0329B697A68127C4F
:1047600007F1080110469847F8600FE0396878684B
:1047700000F015FAFB7A0133FB7207E039687868BC
:1047800000F00DFAFB7A0133FB7238E037E07B680A
:104790001B7C002B09D17B68D3F8B4325B6B07F12B
:1047A000080210469847F86029E03968786800F0F8
:1047B000F6F9FB7A0133FB7221E07B681B7C002B4E
:1047C0000DD17B68D3F8B4321B6B07F10802104699
:1047D0009847F860FB68013307221A700FE03968C8
:1047E000786800F0DCF9FB7A0133FB7207E0396886
:1047F000786800F0D4F9FB7A0133FB7200BFFB7AD2
:10480000002B1CD13B89002B11D03B68DB88002B8F
:104810000DD03B68DA883B89934228BF13469BB290
:104820003B813B891A46F968786800F022FA3B68B8
:10483000DB88002B04D1786800F05BFA00E000BF51
:104840001037BD4680BD00BF80B584B000AF786032
:1048500039603B689B88002B30D13B68DB88002B9C
:104860002CD13B685B887F2B28D83B685B88DBB208
:1048700003F07F03FB737B6893F89C32032B04D116
:104880003968786800F08BF91DE07B68FA7B83F863
:104890009E22FB7B1946786802F0D1FE786800F012
:1048A00028FAFB7B002B04D07B68022283F89C2231
:1048B00009E07B68012283F89C2204E0396878686B
:1048C00000F06DF900BF00BF1037BD4680BD00008D
:1048D00080B582B000AF786039603B685B88DAB23F
:1048E000414B1A70404B1B78012B04D9396878680A
:1048F00000F055F975E07B6893F89C32022B02D0EA
:10490000032B23D062E0384B1B78002B1AD0364B98
:104910001B781A467B685A607B68032283F89C22C6
:10492000314B1B7819467868FFF7E8F90346022BEC
:1049300004D13968786800F032F952E0786800F004
:10494000D8F94EE0786800F0D4F94AE0264B1B789D
:10495000002B12D17B68022283F89C22224B1B7809
:104960001A467B685A60204B1B7819467868FFF717
:10497000E4F9786800F0BDF933E01B4B1B781A4668
:104980007B685B689A421DD07B685B68DBB2194626
:104990007868FFF7D2F9144B1B781A467B685A6087
:1049A000114B1B7819467868FFF7A8F90346022BCC
:1049B00004D13968786800F0F2F812E0786800F005
:1049C00098F90EE0786800F094F90AE039687868A0
:1049D00000F0E5F8044B1B7819467868FFF7ADF94D
:1049E00000BF0837BD4680BDA801002080B582B059
:1049F00000AF786039603B68DB88012B04D03968F0
:104A0000786800F0CCF822E07B6893F89C32022BA7
:104A100002DC002B03DC15E0032B0BD012E07B68DB
:104A200000229A607B68083301221946786800F0FA
:104A300020F90CE07B68043301221946786800F005
:104A400018F904E03968786800F0A9F800BF00BFE1
:104A50000837BD4680BD80B582B000AF7860396050
:104A60007B6893F89C32013B022B1ED83B68DB88A5
:104A7000022B04D03968786800F091F81AE07B685E
:104A80000122DA607B68D3F8A432002B05D07B6862
:104A9000DB6843F002027B68DA607B680C33022239
:104AA0001946786800F0E5F804E03968786800F0A5
:104AB00076F800BF00BF0837BD4680BD80B582B024
:104AC00000AF786039603B685B88012B06D17B685A
:104AD0000122C3F8A422786800F00BF900BF083760
:104AE000BD4680BD80B582B000AF786039607B681C
:104AF00093F89C32013B022B0BD83B685B88012B5F
:104B00000CD17B680022C3F8A422786800F0F1F889
:104B100004E03968786800F042F800E000BF00BFA8
:104B20000837BD4680BD80B483B000AF786039607F
:104B30003B681A787B681A703B685A787B685A70B1
:104B40003B6802331B789AB23B6803331B789BB2F5
:104B50001B029BB213449AB27B685A803B680433B1
:104B60001B789AB23B6805331B789BB21B029BB241
:104B700013449AB27B689A803B6806331B789AB2DA
:104B80003B6807331B789BB21B029BB213449AB25B
:104B90007B68DA8000BF0C37BD4680BC704780B5AB
:104BA00082B000AF786039608021786802F0E4FC60
:104BB0000021786802F0E0FC00BF0837BD4680BDE8
:104BC00080B586B000AFF860B9607A600023FB75ED
:104BD000FB68002B32D0F86800F034F8034601334C
:104BE0009BB25B009AB27B681A80FB7D5A1CFA75F7
:104BF0001A46BB6813447A6812781A70FB7D5A1CF7
:104C0000FA751A46BB68134403221A7012E0FB6857
:104C10005A1CFA60FA7D511CF9751146BA680A44AB
:104C20001B781370FB7D5A1CFA751A46BB68134437
:104C300000221A70FB681B78002BE8D100BF1837E0
:104C4000BD4680BD80B485B000AF78600023FB73A3
:104C500005E0FB7B0133FB737B6801337B607B6882
:104C60001B78002BF5D1FB7B18461437BD4680BC62
:104C7000704780B584B000AFF860B9601346FB8020
:104C8000FB680222C3F89422FA88FB68DA61FA888A
:104C9000FB681A62FB88BA680021F86802F0EEFC33
:104CA000002318461037BD4680BD80B584B000AFE4
:104CB000F860B9601346FB80FB88BA680021F86889
:104CC00002F0DCFC002318461037BD4680BD80B5DD
:104CD00084B000AFF860B9601346FB80FB88BA6807
:104CE0000021F86802F0EDFC002318461037BD469D
:104CF00080BD80B582B000AF78607B680422C3F8C5
:104D00009422002300220021786802F0B7FC0023DF
:104D100018460837BD4680BD80B582B000AF7860C8
:104D20007B680522C3F894220023002200217868C2
:104D300002F0C7FC002318460837BD4680BD80B48A
:104D400085B000AF0346FB800023FB60B7F9063057
:104D5000842B05D0B7F90620FB6813440333FB60AE
:104D6000FB6818461437BD4680BC704780B483B0DA
:104D700000AFEFF305837B607B68002B14BF01233A
:104D80000023DBB218460C37BD4680BC704780B5A7
:104D900000AF00F0A1FE0023184680BDF0B587B03B
:104DA00002AF786039607B685C687B681D687B68EF
:104DB0001B699EB27B68B3F908301846FFF7BFFF46
:104DC000024607F10C03019300923B6832462946E4
:104DD000204600F023FD0346012B01D0002300E014
:104DE000FB6818461437BD46F0BD80B584B000AFEF
:104DF00078607B68FB60FB68002B01D0FB6800E0FB
:104E00000123184600F034FE002318461037BD4633
:104E100080BD000080B586B002AF786039600023A5
:104E2000FB600023BB60FFF7A1FF0346002B1CD0F3
:104E3000396807F1080207F10C03009313460122B9
:104E4000786801F00BFA0346012B02D04FF00043C3
:104E500019E0FB68002B15D00D4B4FF080521A6003
:104E6000BFF34F8FBFF36F8F0CE0396807F1080372
:104E70000122786801F04EF90346012B02D04FF071
:104E8000004300E0BB6818461037BD4680BD00BF38
:104E900004ED00E090B589B000AFF860B9607A60C9
:104EA00000237B610023FB617B68B3F1FF3F03D1EB
:104EB0004FF0FF33FB6109E07B68002B06D07B6875
:104EC000FB61FB69002B01D10123FB61FFF74EFF62
:104ED0000346002B02D082233B611BE0B96807F137
:104EE00010031A1DFB69002001F0BAF80346012BDC
:104EF00008D0FB69002B02D100233B610AE040236C
:104F00003B6107E07B69002B02DA86233B6101E00D
:104F100008233B61FB681C4607F1100393E8070078
:104F200084E80700F8682437BD4690BD80B483B09C
:104F300000AF78607B6803F108027B685A607B6889
:104F40004FF0FF329A607B6803F108027B68DA60F9
:104F50007B6803F108027B681A617B6800221A6093
:104F600000BF0C37BD4680BC704780B483B000AF33
:104F700078607B6800221A6100BF0C37BD4680BC98
:104F8000704780B485B000AF786039607B685B683B
:104F9000FB603B68FA685A60FB689A683B689A60F5
:104FA000FB689B683A685A60FB683A689A603B689D
:104FB0007A681A617B681B685A1C7B681A6000BF9C
:104FC0001437BD4680BC704780B485B000AF7860B0
:104FD00039603B681B68BB60BB68B3F1FF3F03D11E
:104FE0007B681B69FB600CE07B680833FB6002E0B8
:104FF000FB685B68FB60FB685B681B68BA689A4289
:10500000F6D2FB685A683B685A603B685B683A684E
:105010009A603B68FA689A60FB683A685A603B6835
:105020007A681A617B681B685A1C7B681A6000BF2B
:105030001437BD4680BC704780B485B000AF78603F
:105040007B681B69FB607B685B687A6892689A6022
:105050007B689B687A6852685A60FB685B687A680C
:105060009A4203D17B689A68FB685A607B68002289
:105070001A61FB681B685A1EFB681A60FB681B6894
:1050800018461437BD4680BC7047000080B485B018
:1050900000AFF860B9607A60FB68043BFB60FB68B6
:1050A0004FF080721A60FB68043BFB60BB6823F022
:1050B0000102FB681A60FB68043BFB60084AFB685E
:1050C0001A60FB68143BFB607A68FB681A60FB6837
:1050D000203BFB60FB6818461437BD4680BC704718
:1050E000E550000880B485B000AF00237B60124B10
:1050F0001B68B3F1FF3F0AD04FF0500383F31188D0
:10510000BFF36F8FBFF34F8FFB6000BFFEE74FF021
:10511000500383F31188BFF36F8FBFF34F8FBB60D2
:1051200000BF00BF7B68002BFCD000BF00BF14375E
:10513000BD4680BC704700BF340100200000000065
:10514000074B19680868B0E8F00F80F30988BFF3CF
:105150006F8F4FF0000080F311884EF00D0E7047F6
:10516000C80D002000BF00BF06480068006880F33B
:10517000088862B661B6BFF34F8FBFF36F8F00DF51
:1051800000BF00BF08ED00E080B584B000AF324B37
:10519000FB60FB681B78DBB27B60FB68FF221A7048
:1051A000FB681B78DBB2FB70FB78DBB203F05003CB
:1051B000DAB22A4B1A702A4B07221A6009E0284BF0
:1051C0001B68013B264A1360FB78DBB25B00DBB255
:1051D000FB70FB78DBB203F08003802BEFD0204B19
:1051E0001B68C3F10703042B0AD04FF0500383F36D
:1051F0001188BFF36F8FBFF34F8FBB6000BFFEE717
:10520000174B1B681B02164A1360154B1B6803F4EF
:10521000E063134A13607B68DAB2FB681A70114BC3
:105220001B68104A43F4700313600E4B1B680D4A51
:1052300043F07043136000F0B9F80B4B00221A6082
:10524000FFF792FF00F0F8FDFFF74CFF0023184630
:105250001037BD4680BD00BF00E400E0A90100207A
:10526000AC01002020ED00E03401002080B483B0C8
:1052700000AF4FF0500383F31188BFF36F8FBFF37C
:105280004F8F7B6000BF0F4B1B6801330D4A1360CB
:105290000C4B1B68012B0FD10B4B1B68DBB2002B97
:1052A0000AD04FF0500383F31188BFF36F8FBFF321
:1052B0004F8F3B6000BFFEE700BF0C37BD4680BC90
:1052C000704700BF3401002004ED00E080B483B0DB
:1052D00000AF114B1B68002B0AD14FF0500383F332
:1052E0001188BFF36F8FBFF34F8F7B6000BFFEE766
:1052F000094B1B68013B084A1360074B1B68002BD6
:1053000005D100233B603B6883F3118800BF00BFD9
:105310000C37BD4680BC70473401002000000000FF
:10532000EFF30980BFF36F8F0D4B1A6820E9F00F80
:1053300010602DE908404FF0500080F3118800F014
:105340007BFD4FF0000080F31188BDE8084019682C
:105350000868B0E8F00F80F30988BFF36F8F7047DB
:10536000C80D002000BF00BF80B582B000AF4FF075
:10537000500383F31188BFF36F8FBFF34F8F7B60B0
:1053800000BF00F09BFC0346002B03D0064B4FF000
:1053900080521A6000233B603B6883F3118800BF92
:1053A00000BF0837BD4680BD04ED00E080B400AF0B
:1053B0000A4B00221A600A4B00221A60094B1B6834
:1053C000094AA2FB03239B09084A013B1360034BD4
:1053D00007221A6000BFBD4680BC704710E000E0A5
:1053E00018E000E050010020D34D621014E000E00E
:1053F00080B485B000AFEFF30583FB60FB680F2B33
:1054000014D9164AFB6813441B78FB72144B1B78A3
:10541000FA7A9A420AD24FF0500383F31188BFF30D
:105420006F8FBFF34F8F7B6000BFFEE70D4B1B6894
:1054300003F4E0620C4B1B689A420AD94FF0500308
:1054400083F31188BFF36F8FBFF34F8F3B6000BFB3
:10545000FEE700BF1437BD4680BC7047F0E300E0B4
:10546000A90100200CED00E0AC01002080B58AB05D
:1054700000AF78600023FB6100F076FB584B1B689F
:10548000002B01D100F010F9564B1A687B681340CD
:10549000002B40F08E807B68002B1DD008227B689B
:1054A00013447B607B6803F00703002B14D07B68F8
:1054B00023F0070308337B607B6803F00703002BAE
:1054C0000AD04FF0500383F31188BFF36F8FBFF3FF
:1054D0004F8F7B6100BFFEE77B68002B69D0424B9A
:1054E0001B687A689A4264D8404B3B623F4B1B680A
:1054F0007B6204E07B6A3B627B6A1B687B627B6A3F
:105500005B687A689A4203D97B6A1B68002BF1D1E9
:10551000334B1B687A6A9A424BD03B6A1B6808225D
:105520001344FB617B6A1A683B6A1A607B6A5A689B
:105530007B68D21A08235B009A421FD97A6A7B687B
:105540001344BB61BB6903F00703002B0AD04FF083
:10555000500383F31188BFF36F8FBFF34F8F3B610D
:1055600000BFFEE77B6A5A687B68D21ABB695A6043
:105570007B6A7A685A60B86900F0F8F81A4B1A68C2
:105580007B6A5B68D31A184A1360174B1A68184B6A
:105590001B689A4203D2144B1B68154A13607B6A3E
:1055A0005A68104B1B681A437B6A5A607B6A002258
:1055B0001A6000F0E7FAFB6903F00703002B0AD03A
:1055C0004FF0500383F31188BFF36F8FBFF34F8FFA
:1055D000FB6000BFFEE7FB6918462837BD4680BD6B
:1055E000B80D0020C40D0020BC0D0020B00D00201F
:1055F000C00D002080B586B000AF78607B687B610D
:105600007B68002B48D008235B427A6913447B6196
:105610007B693B613B695A68214B1B681340002B37
:105620000AD14FF0500383F31188BFF36F8FBFF39C
:105630004F8FFB6000BFFEE73B691B68002B0AD061
:105640004FF0500383F31188BFF36F8FBFF34F8F79
:10565000BB6000BFFEE73B695A68114B1B681340F3
:10566000002B19D03B691B68002B15D13B695A6888
:105670000B4B1B68DB431A403B695A6000F074FA1D
:105680003B695A68074B1B681344064A1360386924
:1056900000F06CF800F076FA00BF1837BD4680BD08
:1056A000C40D0020BC0D002080B485B000AF4FF4C5
:1056B0004063BB60274BFB60FB6803F00703002BD4
:1056C0000CD0FB680733FB60FB6823F00703FB602B
:1056D000BA68FB68D31A1F4A1344BB60FB687B603F
:1056E0001D4A7B6813601C4B00225A607B68BA68B5
:1056F0001344FB600822FB689B1AFB60FB6823F0E5
:105700000703FB60FB68154A1360144B1B680022FB
:105710005A60124B1B6800221A607B683B603B6832
:10572000FA68D21A3B685A600C4B1A683B681A60D8
:105730003B685B680A4A13603B685B68094A136010
:10574000094B4FF000421A6000BF1437BD4680BCC1
:10575000704700BFB0010020B00D0020B80D002040
:10576000C00D0020BC0D0020C40D002080B485B009
:1057700000AF7860274BFB6002E0FB681B68FB60B2
:10578000FB681B687A689A42F7D8FB68BB60FB68C5
:105790005B68BA6813447A689A4208D1FB685A6811
:1057A0007B685B681A44FB685A60FB687B607B68B7
:1057B000BB607B685B68BA681A44FB681B689A42E6
:1057C00018D1FB681A68144B1B689A420DD07B688D
:1057D0005A68FB681B685B681A447B685A60FB6800
:1057E0001B681A687B681A6008E00B4B1A687B68B4
:1057F0001A6003E0FB681A687B681A60FA687B68C5
:105800009A4202D0FB687A681A6000BF1437BD461E
:1058100080BC7047B00D0020B80D002080B58CB062
:1058200004AFF860B9603B601346FB80FB889B00C7
:105830001846FFF71BFE78617B69002B0ED05420C1
:10584000FFF714FEF861FB69002B03D0FB697A694E
:105850001A6305E07869FFF7CDFE01E00023FB61E4
:10586000FB69002B13D0FA8800230393FB69029392
:10587000FB6A0193BB6A00933B68B968F86800F063
:105880000EF8F86900F08AF80123BB6102E04FF0DE
:10589000FF33BB61BB6918462037BD4680BD80B56C
:1058A00088B000AFF860B9607A603B603B6B1A6B00
:1058B0007B6803F18043013B9B001344BB61BB69E0
:1058C00023F00703BB61BB6903F00703002B0AD079
:1058D0004FF0500383F31188BFF36F8FBFF34F8FE7
:1058E0007B6100BFFEE70023FB6112E0BA68FB6941
:1058F000134419783A6BFB69134434330A461A701F
:10590000BA68FB6913441B78002B06D0FB6901338E
:10591000FB61FB690F2BE9D900E000BF3B6B002264
:1059200083F84320BB6A062B01D90623BB623B6B7D
:10593000BA6ADA623B6BBA6A5A643B6B00229A64B9
:105940003B6B04331846FFF710FB3B6B18331846CC
:10595000FFF70BFB3B6B3A6B1A61BB6AC3F10702A3
:105960003B6B9A613B6B3A6B5A623B6B0022DA6489
:105970003B6B002283F850203A68F968B869FFF75A
:1059800085FB02463B6B1A60FB6A002B02D0FB6A68
:105990003A6B1A6000BF2037BD4680BD80B582B02B
:1059A00000AF7860FFF762FC2A4B1B680133294A7D
:1059B0001360294B1B68002B09D1274A7B681360B1
:1059C000244B1B68012B10D100F0A8FA0DE0234BEB
:1059D0001B68002B09D1204B1B68DA6A7B68DB6AE5
:1059E0009A4202D81C4A7B6813601D4B1B68013326
:1059F0001B4A13607B68DB6A01229A40194B1B68C3
:105A00001343184A13607B68DA6A13469B001344F9
:105A10009B00154A1A447B68043319461046FFF769
:105A2000B0FAFFF753FC0D4B1B68002B0ED00A4B4E
:105A30001B68DA6A7B68DB6A9A4207D20B4B4FF02D
:105A400080521A60BFF34F8FBFF36F8F00BF0837CC
:105A5000BD4680BDC80E0020C80D0020D40E002019
:105A6000E40E0020D00E0020CC0D002004ED00E05C
:105A700080B584B000AF78600023FB607B68002BAA
:105A800017D0134B1B68002B0AD04FF0500383F341
:105A90001188BFF36F8FBFF34F8FBB6000BFFEE76E
:105AA00000F062F80021786800F0A0FC00F06AF8CD
:105AB000F860FB68002B07D1064B4FF080521A604C
:105AC000BFF34F8FBFF36F8F00BF1037BD4680BD50
:105AD000F00E002004ED00E080B586B002AF1C4B54
